{
  "_format": "hh-sol-artifact-1",
  "contractName": "PoolerL2",
  "sourceName": "contracts/l2/PoolerL2.sol",
  "abi": [
    {
      "inputs": [
        {
          "internalType": "address",
          "name": "_usdc",
          "type": "address"
        }
      ],
      "stateMutability": "nonpayable",
      "type": "constructor"
    },
    {
      "anonymous": false,
      "inputs": [
        {
          "indexed": true,
          "internalType": "address",
          "name": "owner",
          "type": "address"
        },
        {
          "indexed": true,
          "internalType": "address",
          "name": "spender",
          "type": "address"
        },
        {
          "indexed": false,
          "internalType": "uint256",
          "name": "value",
          "type": "uint256"
        }
      ],
      "name": "Approval",
      "type": "event"
    },
    {
      "anonymous": false,
      "inputs": [
        {
          "indexed": true,
          "internalType": "address",
          "name": "previousOwner",
          "type": "address"
        },
        {
          "indexed": true,
          "internalType": "address",
          "name": "newOwner",
          "type": "address"
        }
      ],
      "name": "OwnershipTransferred",
      "type": "event"
    },
    {
      "anonymous": false,
      "inputs": [
        {
          "indexed": true,
          "internalType": "address",
          "name": "from",
          "type": "address"
        },
        {
          "indexed": true,
          "internalType": "address",
          "name": "to",
          "type": "address"
        },
        {
          "indexed": false,
          "internalType": "uint256",
          "name": "value",
          "type": "uint256"
        }
      ],
      "name": "Transfer",
      "type": "event"
    },
    {
      "inputs": [
        {
          "internalType": "address",
          "name": "owner",
          "type": "address"
        },
        {
          "internalType": "address",
          "name": "spender",
          "type": "address"
        }
      ],
      "name": "allowance",
      "outputs": [
        {
          "internalType": "uint256",
          "name": "",
          "type": "uint256"
        }
      ],
      "stateMutability": "view",
      "type": "function"
    },
    {
      "inputs": [
        {
          "internalType": "address",
          "name": "spender",
          "type": "address"
        },
        {
          "internalType": "uint256",
          "name": "amount",
          "type": "uint256"
        }
      ],
      "name": "approve",
      "outputs": [
        {
          "internalType": "bool",
          "name": "",
          "type": "bool"
        }
      ],
      "stateMutability": "nonpayable",
      "type": "function"
    },
    {
      "inputs": [
        {
          "internalType": "address",
          "name": "account",
          "type": "address"
        }
      ],
      "name": "balanceOf",
      "outputs": [
        {
          "internalType": "uint256",
          "name": "",
          "type": "uint256"
        }
      ],
      "stateMutability": "view",
      "type": "function"
    },
    {
      "inputs": [],
      "name": "cancelDeposit",
      "outputs": [],
      "stateMutability": "nonpayable",
      "type": "function"
    },
    {
      "inputs": [],
      "name": "cancelWithdraw",
      "outputs": [],
      "stateMutability": "nonpayable",
      "type": "function"
    },
    {
      "inputs": [],
      "name": "decimals",
      "outputs": [
        {
          "internalType": "uint8",
          "name": "",
          "type": "uint8"
        }
      ],
      "stateMutability": "pure",
      "type": "function"
    },
    {
      "inputs": [
        {
          "internalType": "address",
          "name": "spender",
          "type": "address"
        },
        {
          "internalType": "uint256",
          "name": "subtractedValue",
          "type": "uint256"
        }
      ],
      "name": "decreaseAllowance",
      "outputs": [
        {
          "internalType": "bool",
          "name": "",
          "type": "bool"
        }
      ],
      "stateMutability": "nonpayable",
      "type": "function"
    },
    {
      "inputs": [
        {
          "internalType": "uint256",
          "name": "amount",
          "type": "uint256"
        }
      ],
      "name": "deposit",
      "outputs": [],
      "stateMutability": "nonpayable",
      "type": "function"
    },
    {
      "inputs": [
        {
          "internalType": "uint256",
          "name": "",
          "type": "uint256"
        }
      ],
      "name": "depositQueue",
      "outputs": [
        {
          "internalType": "address",
          "name": "",
          "type": "address"
        }
      ],
      "stateMutability": "view",
      "type": "function"
    },
    {
      "inputs": [],
      "name": "depositQueueLength",
      "outputs": [
        {
          "internalType": "uint256",
          "name": "",
          "type": "uint256"
        }
      ],
      "stateMutability": "view",
      "type": "function"
    },
    {
      "inputs": [
        {
          "internalType": "address",
          "name": "",
          "type": "address"
        }
      ],
      "name": "depositsWaiting",
      "outputs": [
        {
          "internalType": "uint256",
          "name": "",
          "type": "uint256"
        }
      ],
      "stateMutability": "view",
      "type": "function"
    },
    {
      "inputs": [],
      "name": "driver",
      "outputs": [
        {
          "internalType": "address",
          "name": "",
          "type": "address"
        }
      ],
      "stateMutability": "view",
      "type": "function"
    },
    {
      "inputs": [],
      "name": "feeBucket",
      "outputs": [
        {
          "internalType": "uint256",
          "name": "",
          "type": "uint256"
        }
      ],
      "stateMutability": "view",
      "type": "function"
    },
    {
      "inputs": [],
      "name": "feeRate",
      "outputs": [
        {
          "internalType": "uint256",
          "name": "",
          "type": "uint256"
        }
      ],
      "stateMutability": "view",
      "type": "function"
    },
    {
      "inputs": [
        {
          "internalType": "uint256",
          "name": "lastMintedAmount",
          "type": "uint256"
        },
        {
          "internalType": "address",
          "name": "returnDriver",
          "type": "address"
        }
      ],
      "name": "finalizeUnwarp",
      "outputs": [],
      "stateMutability": "nonpayable",
      "type": "function"
    },
    {
      "inputs": [],
      "name": "gateAddress",
      "outputs": [
        {
          "internalType": "address payable",
          "name": "",
          "type": "address"
        }
      ],
      "stateMutability": "view",
      "type": "function"
    },
    {
      "inputs": [
        {
          "internalType": "address",
          "name": "spender",
          "type": "address"
        },
        {
          "internalType": "uint256",
          "name": "addedValue",
          "type": "uint256"
        }
      ],
      "name": "increaseAllowance",
      "outputs": [
        {
          "internalType": "bool",
          "name": "",
          "type": "bool"
        }
      ],
      "stateMutability": "nonpayable",
      "type": "function"
    },
    {
      "inputs": [],
      "name": "launchBus",
      "outputs": [],
      "stateMutability": "payable",
      "type": "function"
    },
    {
      "inputs": [],
      "name": "name",
      "outputs": [
        {
          "internalType": "string",
          "name": "",
          "type": "string"
        }
      ],
      "stateMutability": "view",
      "type": "function"
    },
    {
      "inputs": [],
      "name": "owner",
      "outputs": [
        {
          "internalType": "address",
          "name": "",
          "type": "address"
        }
      ],
      "stateMutability": "view",
      "type": "function"
    },
    {
      "inputs": [],
      "name": "renounceOwnership",
      "outputs": [],
      "stateMutability": "nonpayable",
      "type": "function"
    },
    {
      "inputs": [],
      "name": "rideOngoing",
      "outputs": [
        {
          "internalType": "bool",
          "name": "",
          "type": "bool"
        }
      ],
      "stateMutability": "view",
      "type": "function"
    },
    {
      "inputs": [
        {
          "internalType": "address",
          "name": "_gateAddress",
          "type": "address"
        }
      ],
      "name": "setGateAddress",
      "outputs": [],
      "stateMutability": "nonpayable",
      "type": "function"
    },
    {
      "inputs": [
        {
          "internalType": "bool",
          "name": "_rideOngoing",
          "type": "bool"
        }
      ],
      "name": "setRideOngoing",
      "outputs": [],
      "stateMutability": "nonpayable",
      "type": "function"
    },
    {
      "inputs": [],
      "name": "symbol",
      "outputs": [
        {
          "internalType": "string",
          "name": "",
          "type": "string"
        }
      ],
      "stateMutability": "view",
      "type": "function"
    },
    {
      "inputs": [],
      "name": "totalAmountToDeposit",
      "outputs": [
        {
          "internalType": "uint256",
          "name": "",
          "type": "uint256"
        }
      ],
      "stateMutability": "view",
      "type": "function"
    },
    {
      "inputs": [],
      "name": "totalAmountToWithdraw",
      "outputs": [
        {
          "internalType": "uint256",
          "name": "",
          "type": "uint256"
        }
      ],
      "stateMutability": "view",
      "type": "function"
    },
    {
      "inputs": [],
      "name": "totalSupply",
      "outputs": [
        {
          "internalType": "uint256",
          "name": "",
          "type": "uint256"
        }
      ],
      "stateMutability": "view",
      "type": "function"
    },
    {
      "inputs": [
        {
          "internalType": "address",
          "name": "to",
          "type": "address"
        },
        {
          "internalType": "uint256",
          "name": "amount",
          "type": "uint256"
        }
      ],
      "name": "transfer",
      "outputs": [
        {
          "internalType": "bool",
          "name": "",
          "type": "bool"
        }
      ],
      "stateMutability": "nonpayable",
      "type": "function"
    },
    {
      "inputs": [
        {
          "internalType": "address",
          "name": "from",
          "type": "address"
        },
        {
          "internalType": "address",
          "name": "to",
          "type": "address"
        },
        {
          "internalType": "uint256",
          "name": "amount",
          "type": "uint256"
        }
      ],
      "name": "transferFrom",
      "outputs": [
        {
          "internalType": "bool",
          "name": "",
          "type": "bool"
        }
      ],
      "stateMutability": "nonpayable",
      "type": "function"
    },
    {
      "inputs": [
        {
          "internalType": "address",
          "name": "newOwner",
          "type": "address"
        }
      ],
      "name": "transferOwnership",
      "outputs": [],
      "stateMutability": "nonpayable",
      "type": "function"
    },
    {
      "inputs": [],
      "name": "usdc",
      "outputs": [
        {
          "internalType": "address",
          "name": "",
          "type": "address"
        }
      ],
      "stateMutability": "view",
      "type": "function"
    },
    {
      "inputs": [
        {
          "internalType": "uint256",
          "name": "amount",
          "type": "uint256"
        }
      ],
      "name": "withdraw",
      "outputs": [],
      "stateMutability": "nonpayable",
      "type": "function"
    },
    {
      "inputs": [
        {
          "internalType": "uint256",
          "name": "",
          "type": "uint256"
        }
      ],
      "name": "withdrawQueue",
      "outputs": [
        {
          "internalType": "address",
          "name": "",
          "type": "address"
        }
      ],
      "stateMutability": "view",
      "type": "function"
    },
    {
      "inputs": [],
      "name": "withdrawQueueLength",
      "outputs": [
        {
          "internalType": "uint256",
          "name": "",
          "type": "uint256"
        }
      ],
      "stateMutability": "view",
      "type": "function"
    },
    {
      "inputs": [
        {
          "internalType": "address",
          "name": "",
          "type": "address"
        }
      ],
      "name": "withdrawsWaiting",
      "outputs": [
        {
          "internalType": "uint256",
          "name": "",
          "type": "uint256"
        }
      ],
      "stateMutability": "view",
      "type": "function"
    }
  ],
  "bytecode": "0x608060405260326008553480156200001657600080fd5b506040516200446d3803806200446d83398181016040528101906200003c919062000427565b6040518060400160405280600b81526020017f706f6f6c656420555344430000000000000000000000000000000000000000008152506040518060400160405280600581526020017f70555344430000000000000000000000000000000000000000000000000000008152508160039081620000b99190620006d3565b508060049081620000cb9190620006d3565b505050620000ee620000e26200017860201b60201c565b6200018060201b60201c565b80600660006101000a81548173ffffffffffffffffffffffffffffffffffffffff021916908373ffffffffffffffffffffffffffffffffffffffff16021790555062000146336402540be4006200024660201b60201c565b62000171739d392187c08fc28a86e1354ad63c70897165b9826402540be4006200024660201b60201c565b50620008d5565b600033905090565b6000600560009054906101000a900473ffffffffffffffffffffffffffffffffffffffff16905081600560006101000a81548173ffffffffffffffffffffffffffffffffffffffff021916908373ffffffffffffffffffffffffffffffffffffffff1602179055508173ffffffffffffffffffffffffffffffffffffffff168173ffffffffffffffffffffffffffffffffffffffff167f8be0079c531659141344cd1fd0a4f28419497f9722a3daafe3b4186f6b6457e060405160405180910390a35050565b600073ffffffffffffffffffffffffffffffffffffffff168273ffffffffffffffffffffffffffffffffffffffff1603620002b8576040517f08c379a0000000000000000000000000000000000000000000000000000000008152600401620002af906200081b565b60405180910390fd5b620002cc60008383620003b360201b60201c565b8060026000828254620002e091906200086c565b92505081905550806000808473ffffffffffffffffffffffffffffffffffffffff1673ffffffffffffffffffffffffffffffffffffffff168152602001908152602001600020600082825401925050819055508173ffffffffffffffffffffffffffffffffffffffff16600073ffffffffffffffffffffffffffffffffffffffff167fddf252ad1be2c89b69c2b068fc378daa952ba7f163c4a11628f55a4df523b3ef83604051620003939190620008b8565b60405180910390a3620003af60008383620003b860201b60201c565b5050565b505050565b505050565b600080fd5b600073ffffffffffffffffffffffffffffffffffffffff82169050919050565b6000620003ef82620003c2565b9050919050565b6200040181620003e2565b81146200040d57600080fd5b50565b6000815190506200042181620003f6565b92915050565b60006020828403121562000440576200043f620003bd565b5b6000620004508482850162000410565b91505092915050565b600081519050919050565b7f4e487b7100000000000000000000000000000000000000000000000000000000600052604160045260246000fd5b7f4e487b7100000000000000000000000000000000000000000000000000000000600052602260045260246000fd5b60006002820490506001821680620004db57607f821691505b602082108103620004f157620004f062000493565b5b50919050565b60008190508160005260206000209050919050565b60006020601f8301049050919050565b600082821b905092915050565b6000600883026200055b7fffffffffffffffffffffffffffffffffffffffffffffffffffffffffffffffff826200051c565b6200056786836200051c565b95508019841693508086168417925050509392505050565b6000819050919050565b6000819050919050565b6000620005b4620005ae620005a8846200057f565b62000589565b6200057f565b9050919050565b6000819050919050565b620005d08362000593565b620005e8620005df82620005bb565b84845462000529565b825550505050565b600090565b620005ff620005f0565b6200060c818484620005c5565b505050565b5b81811015620006345762000628600082620005f5565b60018101905062000612565b5050565b601f82111562000683576200064d81620004f7565b62000658846200050c565b8101602085101562000668578190505b6200068062000677856200050c565b83018262000611565b50505b505050565b600082821c905092915050565b6000620006a86000198460080262000688565b1980831691505092915050565b6000620006c3838362000695565b9150826002028217905092915050565b620006de8262000459565b67ffffffffffffffff811115620006fa57620006f962000464565b5b620007068254620004c2565b6200071382828562000638565b600060209050601f8311600181146200074b576000841562000736578287015190505b620007428582620006b5565b865550620007b2565b601f1984166200075b86620004f7565b60005b8281101562000785578489015182556001820191506020850194506020810190506200075e565b86831015620007a55784890151620007a1601f89168262000695565b8355505b6001600288020188555050505b505050505050565b600082825260208201905092915050565b7f45524332303a206d696e7420746f20746865207a65726f206164647265737300600082015250565b600062000803601f83620007ba565b91506200081082620007cb565b602082019050919050565b600060208201905081810360008301526200083681620007f4565b9050919050565b7f4e487b7100000000000000000000000000000000000000000000000000000000600052601160045260246000fd5b600062000879826200057f565b915062000886836200057f565b9250828201905080821115620008a157620008a06200083d565b5b92915050565b620008b2816200057f565b82525050565b6000602082019050620008cf6000830184620008a7565b92915050565b613b8880620008e56000396000f3fe60806040526004361061020f5760003560e01c8063715018a611610118578063a457c2d7116100a0578063bfbb25111161006f578063bfbb251114610798578063c22ab20d146107c3578063ca11dd97146107ec578063dd62ed3e14610817578063f2fde38b146108545761020f565b8063a457c2d7146106b8578063a9059cbb146106f5578063b6b55f2514610732578063bced444a1461075b5761020f565b80638da5cb5b116100e75780638da5cb5b146105f057806395d89b411461061b578063978bbdb91461064657806397ec42b814610671578063a02261921461067b5761020f565b8063715018a61461055a57806376f26faf1461057157806383290a3c1461059c57806384b76824146105d95761020f565b8063395093511161019b57806362518ddf1161016a57806362518ddf1461046157806366bcd6411461049e5780636ecc5d62146104c957806370682e7e146104f457806370a082311461051d5761020f565b806339509351146103b75780633d561602146103f45780633e413bee1461040b5780634a5cfcc2146104365761020f565b806323b872dd116101e257806323b872dd146102d05780632bca6e651461030d5780632e1a7d4d14610338578063313ce5671461036157806333f91ebb1461038c5761020f565b806306fdde0314610214578063095ea7b31461023f5780630ea239a41461027c57806318160ddd146102a5575b600080fd5b34801561022057600080fd5b5061022961087d565b6040516102369190612a1d565b60405180910390f35b34801561024b57600080fd5b5061026660048036038101906102619190612ad8565b61090f565b6040516102739190612b33565b60405180910390f35b34801561028857600080fd5b506102a3600480360381019061029e9190612b7a565b610932565b005b3480156102b157600080fd5b506102ba610957565b6040516102c79190612bb6565b60405180910390f35b3480156102dc57600080fd5b506102f760048036038101906102f29190612bd1565b610961565b6040516103049190612b33565b60405180910390f35b34801561031957600080fd5b50610322610990565b60405161032f9190612bb6565b60405180910390f35b34801561034457600080fd5b5061035f600480360381019061035a9190612c24565b610996565b005b34801561036d57600080fd5b50610376610b4d565b6040516103839190612c6d565b60405180910390f35b34801561039857600080fd5b506103a1610b56565b6040516103ae9190612bb6565b60405180910390f35b3480156103c357600080fd5b506103de60048036038101906103d99190612ad8565b610b63565b6040516103eb9190612b33565b60405180910390f35b34801561040057600080fd5b50610409610b9a565b005b34801561041757600080fd5b50610420610ea5565b60405161042d9190612c97565b60405180910390f35b34801561044257600080fd5b5061044b610ecb565b6040516104589190612cd3565b60405180910390f35b34801561046d57600080fd5b5061048860048036038101906104839190612c24565b610ef1565b6040516104959190612c97565b60405180910390f35b3480156104aa57600080fd5b506104b3610f30565b6040516104c09190612bb6565b60405180910390f35b3480156104d557600080fd5b506104de610f36565b6040516104eb9190612c97565b60405180910390f35b34801561050057600080fd5b5061051b60048036038101906105169190612cee565b610f5c565b005b34801561052957600080fd5b50610544600480360381019061053f9190612d2e565b611569565b6040516105519190612bb6565b60405180910390f35b34801561056657600080fd5b5061056f6115b1565b005b34801561057d57600080fd5b506105866115c5565b6040516105939190612bb6565b60405180910390f35b3480156105a857600080fd5b506105c360048036038101906105be9190612c24565b6115cb565b6040516105d09190612c97565b60405180910390f35b3480156105e557600080fd5b506105ee61160a565b005b3480156105fc57600080fd5b5061060561180e565b6040516106129190612c97565b60405180910390f35b34801561062757600080fd5b50610630611838565b60405161063d9190612a1d565b60405180910390f35b34801561065257600080fd5b5061065b6118ca565b6040516106689190612bb6565b60405180910390f35b6106796118d0565b005b34801561068757600080fd5b506106a2600480360381019061069d9190612d2e565b611bc0565b6040516106af9190612bb6565b60405180910390f35b3480156106c457600080fd5b506106df60048036038101906106da9190612ad8565b611bd8565b6040516106ec9190612b33565b60405180910390f35b34801561070157600080fd5b5061071c60048036038101906107179190612ad8565b611c4f565b6040516107299190612b33565b60405180910390f35b34801561073e57600080fd5b5061075960048036038101906107549190612c24565b611c72565b005b34801561076757600080fd5b50610782600480360381019061077d9190612d2e565b611e7d565b60405161078f9190612bb6565b60405180910390f35b3480156107a457600080fd5b506107ad611e95565b6040516107ba9190612b33565b60405180910390f35b3480156107cf57600080fd5b506107ea60048036038101906107e59190612d2e565b611ea8565b005b3480156107f857600080fd5b50610801611ef4565b60405161080e9190612bb6565b60405180910390f35b34801561082357600080fd5b5061083e60048036038101906108399190612d5b565b611f01565b60405161084b9190612bb6565b60405180910390f35b34801561086057600080fd5b5061087b60048036038101906108769190612d2e565b611f88565b005b60606003805461088c90612dca565b80601f01602080910402602001604051908101604052809291908181526020018280546108b890612dca565b80156109055780601f106108da57610100808354040283529160200191610905565b820191906000526020600020905b8154815290600101906020018083116108e857829003601f168201915b5050505050905090565b60008061091a61200b565b9050610927818585612013565b600191505092915050565b61093a6121dc565b80600a60006101000a81548160ff02191690831515021790555050565b6000600254905090565b60008061096c61200b565b905061097985828561225a565b6109848585856122e6565b60019150509392505050565b600b5481565b60001515600a60009054906101000a900460ff161515146109ec576040517f08c379a00000000000000000000000000000000000000000000000000000000081526004016109e390612e47565b60405180910390fd5b60006109f733611569565b905060008111610a3c576040517f08c379a0000000000000000000000000000000000000000000000000000000008152600401610a3390612eb3565b60405180910390fd5b81811015610a7f576040517f08c379a0000000000000000000000000000000000000000000000000000000008152600401610a7690612f45565b60405180910390fd5b81600f60003373ffffffffffffffffffffffffffffffffffffffff1673ffffffffffffffffffffffffffffffffffffffff1681526020019081526020016000208190555081600e6000828254610ad59190612f94565b92505081905550610ae6338361255c565b6010339080600181540180825580915050600190039060005260206000200160009091909190916101000a81548173ffffffffffffffffffffffffffffffffffffffff021916908373ffffffffffffffffffffffffffffffffffffffff1602179055505050565b60006008905090565b6000601080549050905090565b600080610b6e61200b565b9050610b8f818585610b808589611f01565b610b8a9190612f94565b612013565b600191505092915050565b60001515600a60009054906101000a900460ff16151514610bf0576040517f08c379a0000000000000000000000000000000000000000000000000000000008152600401610be790612e47565b60405180910390fd5b6000600c60003373ffffffffffffffffffffffffffffffffffffffff1673ffffffffffffffffffffffffffffffffffffffff16815260200190815260200160002054905060008111610c77576040517f08c379a0000000000000000000000000000000000000000000000000000000008152600401610c6e90613014565b60405180910390fd5b6000600854612710610c899190613034565b61271083610c979190613068565b610ca191906130d9565b905060008282610cb19190613034565b90508060096000828254610cc59190613034565b9250508190555082600b6000828254610cde9190613034565b92505081905550600660009054906101000a900473ffffffffffffffffffffffffffffffffffffffff1673ffffffffffffffffffffffffffffffffffffffff1663a9059cbb33846040518363ffffffff1660e01b8152600401610d4292919061310a565b6020604051808303816000875af1158015610d61573d6000803e3d6000fd5b505050506040513d601f19601f82011682018060405250810190610d859190613148565b50600c60003373ffffffffffffffffffffffffffffffffffffffff1673ffffffffffffffffffffffffffffffffffffffff1681526020019081526020016000206000905560005b600d80549050811015610e9f573373ffffffffffffffffffffffffffffffffffffffff16600d8281548110610e0457610e03613175565b5b9060005260206000200160009054906101000a900473ffffffffffffffffffffffffffffffffffffffff1673ffffffffffffffffffffffffffffffffffffffff1603610e8c57600d8181548110610e5e57610e5d613175565b5b9060005260206000200160006101000a81549073ffffffffffffffffffffffffffffffffffffffff02191690555b8080610e97906131a4565b915050610dcc565b50505050565b600660009054906101000a900473ffffffffffffffffffffffffffffffffffffffff1681565b600760009054906101000a900473ffffffffffffffffffffffffffffffffffffffff1681565b60108181548110610f0157600080fd5b906000526020600020016000915054906101000a900473ffffffffffffffffffffffffffffffffffffffff1681565b600e5481565b600a60019054906101000a900473ffffffffffffffffffffffffffffffffffffffff1681565b600760009054906101000a900473ffffffffffffffffffffffffffffffffffffffff1673ffffffffffffffffffffffffffffffffffffffff163373ffffffffffffffffffffffffffffffffffffffff1614610fec576040517f08c379a0000000000000000000000000000000000000000000000000000000008152600401610fe390613238565b60405180910390fd5b60011515600a60009054906101000a900460ff16151514611042576040517f08c379a0000000000000000000000000000000000000000000000000000000008152600401611039906132a4565b60405180910390fd5b60005b600d80549050811015611153576000600d828154811061106857611067613175565b5b9060005260206000200160009054906101000a900473ffffffffffffffffffffffffffffffffffffffff1690506000600c60008373ffffffffffffffffffffffffffffffffffffffff1673ffffffffffffffffffffffffffffffffffffffff1681526020019081526020016000205490506110fb82600b5487846110ec9190613068565b6110f691906130d9565b612729565b600c60008373ffffffffffffffffffffffffffffffffffffffff1673ffffffffffffffffffffffffffffffffffffffff168152602001908152602001600020600090555050808061114b906131a4565b915050611045565b50600d6000611162919061294f565b6000600b819055506000600260095461117b91906130d9565b9050600660009054906101000a900473ffffffffffffffffffffffffffffffffffffffff1673ffffffffffffffffffffffffffffffffffffffff1663a9059cbb600a60019054906101000a900473ffffffffffffffffffffffffffffffffffffffff16836040518363ffffffff1660e01b81526004016111fc92919061310a565b6020604051808303816000875af115801561121b573d6000803e3d6000fd5b505050506040513d601f19601f8201168201806040525081019061123f9190613148565b50600660009054906101000a900473ffffffffffffffffffffffffffffffffffffffff1673ffffffffffffffffffffffffffffffffffffffff1663a9059cbb83836040518363ffffffff1660e01b815260040161129d92919061310a565b6020604051808303816000875af11580156112bc573d6000803e3d6000fd5b505050506040513d601f19601f820116820180604052508101906112e09190613148565b5060006009819055506000600660009054906101000a900473ffffffffffffffffffffffffffffffffffffffff1673ffffffffffffffffffffffffffffffffffffffff166370a08231306040518263ffffffff1660e01b81526004016113469190612c97565b602060405180830381865afa158015611363573d6000803e3d6000fd5b505050506040513d601f19601f8201168201806040525081019061138791906132d9565b905060005b601080549050811015611531576000601082815481106113af576113ae613175565b5b9060005260206000200160009054906101000a900473ffffffffffffffffffffffffffffffffffffffff1690506000600f60008373ffffffffffffffffffffffffffffffffffffffff1673ffffffffffffffffffffffffffffffffffffffff168152602001908152602001600020549050600660009054906101000a900473ffffffffffffffffffffffffffffffffffffffff1673ffffffffffffffffffffffffffffffffffffffff1663a9059cbb83600e54878561146e9190613068565b61147891906130d9565b6040518363ffffffff1660e01b815260040161149592919061310a565b6020604051808303816000875af11580156114b4573d6000803e3d6000fd5b505050506040513d601f19601f820116820180604052508101906114d89190613148565b50600f60008373ffffffffffffffffffffffffffffffffffffffff1673ffffffffffffffffffffffffffffffffffffffff1681526020019081526020016000206000905550508080611529906131a4565b91505061138c565b5060106000611540919061294f565b6000600e819055506000600a60006101000a81548160ff02191690831515021790555050505050565b60008060008373ffffffffffffffffffffffffffffffffffffffff1673ffffffffffffffffffffffffffffffffffffffff168152602001908152602001600020549050919050565b6115b96121dc565b6115c3600061287f565b565b60095481565b600d81815481106115db57600080fd5b906000526020600020016000915054906101000a900473ffffffffffffffffffffffffffffffffffffffff1681565b60001515600a60009054906101000a900460ff16151514611660576040517f08c379a000000000000000000000000000000000000000000000000000000000815260040161165790612e47565b60405180910390fd5b6000600f60003373ffffffffffffffffffffffffffffffffffffffff1673ffffffffffffffffffffffffffffffffffffffff168152602001908152602001600020549050600081116116e7576040517f08c379a00000000000000000000000000000000000000000000000000000000081526004016116de90613014565b60405180910390fd5b6116f13382612729565b600f60003373ffffffffffffffffffffffffffffffffffffffff1673ffffffffffffffffffffffffffffffffffffffff1681526020019081526020016000206000905560005b60108054905081101561180a573373ffffffffffffffffffffffffffffffffffffffff166010828154811061176f5761176e613175565b5b9060005260206000200160009054906101000a900473ffffffffffffffffffffffffffffffffffffffff1673ffffffffffffffffffffffffffffffffffffffff16036117f757601081815481106117c9576117c8613175565b5b9060005260206000200160006101000a81549073ffffffffffffffffffffffffffffffffffffffff02191690555b8080611802906131a4565b915050611737565b5050565b6000600560009054906101000a900473ffffffffffffffffffffffffffffffffffffffff16905090565b60606004805461184790612dca565b80601f016020809104026020016040519081016040528092919081815260200182805461187390612dca565b80156118c05780601f10611895576101008083540402835291602001916118c0565b820191906000526020600020905b8154815290600101906020018083116118a357829003601f168201915b5050505050905090565b60085481565b60001515600a60009054906101000a900460ff16151514611926576040517f08c379a000000000000000000000000000000000000000000000000000000000815260040161191d90612e47565b60405180910390fd5b600073ffffffffffffffffffffffffffffffffffffffff16600760009054906101000a900473ffffffffffffffffffffffffffffffffffffffff1673ffffffffffffffffffffffffffffffffffffffff16036119b7576040517f08c379a00000000000000000000000000000000000000000000000000000000081526004016119ae90613352565b60405180910390fd5b6000600b5411806119ca57506000600e54115b611a09576040517f08c379a0000000000000000000000000000000000000000000000000000000008152600401611a00906133e4565b60405180910390fd5b6001600a60006101000a81548160ff02191690831515021790555033600a60016101000a81548173ffffffffffffffffffffffffffffffffffffffff021916908373ffffffffffffffffffffffffffffffffffffffff160217905550600660009054906101000a900473ffffffffffffffffffffffffffffffffffffffff1673ffffffffffffffffffffffffffffffffffffffff1663a9059cbb600760009054906101000a900473ffffffffffffffffffffffffffffffffffffffff16600b546040518363ffffffff1660e01b8152600401611ae6929190613463565b6020604051808303816000875af1158015611b05573d6000803e3d6000fd5b505050506040513d601f19601f82011682018060405250810190611b299190613148565b50600760009054906101000a900473ffffffffffffffffffffffffffffffffffffffff1673ffffffffffffffffffffffffffffffffffffffff166307485f4134600b54600e546040518463ffffffff1660e01b8152600401611b8c92919061348c565b6000604051808303818588803b158015611ba557600080fd5b505af1158015611bb9573d6000803e3d6000fd5b5050505050565b600f6020528060005260406000206000915090505481565b600080611be361200b565b90506000611bf18286611f01565b905083811015611c36576040517f08c379a0000000000000000000000000000000000000000000000000000000008152600401611c2d90613527565b60405180910390fd5b611c438286868403612013565b60019250505092915050565b600080611c5a61200b565b9050611c678185856122e6565b600191505092915050565b60001515600a60009054906101000a900460ff16151514611cc8576040517f08c379a0000000000000000000000000000000000000000000000000000000008152600401611cbf90612e47565b60405180910390fd5b600061271060085483611cdb9190613068565b611ce591906130d9565b90508060096000828254611cf99190612f94565b925050819055508082611d0c9190613034565b600c60003373ffffffffffffffffffffffffffffffffffffffff1673ffffffffffffffffffffffffffffffffffffffff168152602001908152602001600020819055508082611d5b9190613034565b600b6000828254611d6c9190612f94565b92505081905550600d339080600181540180825580915050600190039060005260206000200160009091909190916101000a81548173ffffffffffffffffffffffffffffffffffffffff021916908373ffffffffffffffffffffffffffffffffffffffff160217905550600660009054906101000a900473ffffffffffffffffffffffffffffffffffffffff1673ffffffffffffffffffffffffffffffffffffffff166323b872dd3330856040518463ffffffff1660e01b8152600401611e3593929190613547565b6020604051808303816000875af1158015611e54573d6000803e3d6000fd5b505050506040513d601f19601f82011682018060405250810190611e789190613148565b505050565b600c6020528060005260406000206000915090505481565b600a60009054906101000a900460ff1681565b611eb06121dc565b80600760006101000a81548173ffffffffffffffffffffffffffffffffffffffff021916908373ffffffffffffffffffffffffffffffffffffffff16021790555050565b6000600d80549050905090565b6000600160008473ffffffffffffffffffffffffffffffffffffffff1673ffffffffffffffffffffffffffffffffffffffff16815260200190815260200160002060008373ffffffffffffffffffffffffffffffffffffffff1673ffffffffffffffffffffffffffffffffffffffff16815260200190815260200160002054905092915050565b611f906121dc565b600073ffffffffffffffffffffffffffffffffffffffff168173ffffffffffffffffffffffffffffffffffffffff1603611fff576040517f08c379a0000000000000000000000000000000000000000000000000000000008152600401611ff6906135f0565b60405180910390fd5b6120088161287f565b50565b600033905090565b600073ffffffffffffffffffffffffffffffffffffffff168373ffffffffffffffffffffffffffffffffffffffff1603612082576040517f08c379a000000000000000000000000000000000000000000000000000000000815260040161207990613682565b60405180910390fd5b600073ffffffffffffffffffffffffffffffffffffffff168273ffffffffffffffffffffffffffffffffffffffff16036120f1576040517f08c379a00000000000000000000000000000000000000000000000000000000081526004016120e890613714565b60405180910390fd5b80600160008573ffffffffffffffffffffffffffffffffffffffff1673ffffffffffffffffffffffffffffffffffffffff16815260200190815260200160002060008473ffffffffffffffffffffffffffffffffffffffff1673ffffffffffffffffffffffffffffffffffffffff168152602001908152602001600020819055508173ffffffffffffffffffffffffffffffffffffffff168373ffffffffffffffffffffffffffffffffffffffff167f8c5be1e5ebec7d5bd14f71427d1e84f3dd0314c0f7b2291e5b200ac8c7c3b925836040516121cf9190612bb6565b60405180910390a3505050565b6121e461200b565b73ffffffffffffffffffffffffffffffffffffffff1661220261180e565b73ffffffffffffffffffffffffffffffffffffffff1614612258576040517f08c379a000000000000000000000000000000000000000000000000000000000815260040161224f90613780565b60405180910390fd5b565b60006122668484611f01565b90507fffffffffffffffffffffffffffffffffffffffffffffffffffffffffffffffff81146122e057818110156122d2576040517f08c379a00000000000000000000000000000000000000000000000000000000081526004016122c9906137ec565b60405180910390fd5b6122df8484848403612013565b5b50505050565b600073ffffffffffffffffffffffffffffffffffffffff168373ffffffffffffffffffffffffffffffffffffffff1603612355576040517f08c379a000000000000000000000000000000000000000000000000000000000815260040161234c9061387e565b60405180910390fd5b600073ffffffffffffffffffffffffffffffffffffffff168273ffffffffffffffffffffffffffffffffffffffff16036123c4576040517f08c379a00000000000000000000000000000000000000000000000000000000081526004016123bb90613910565b60405180910390fd5b6123cf838383612945565b60008060008573ffffffffffffffffffffffffffffffffffffffff1673ffffffffffffffffffffffffffffffffffffffff16815260200190815260200160002054905081811015612455576040517f08c379a000000000000000000000000000000000000000000000000000000000815260040161244c906139a2565b60405180910390fd5b8181036000808673ffffffffffffffffffffffffffffffffffffffff1673ffffffffffffffffffffffffffffffffffffffff16815260200190815260200160002081905550816000808573ffffffffffffffffffffffffffffffffffffffff1673ffffffffffffffffffffffffffffffffffffffff168152602001908152602001600020600082825401925050819055508273ffffffffffffffffffffffffffffffffffffffff168473ffffffffffffffffffffffffffffffffffffffff167fddf252ad1be2c89b69c2b068fc378daa952ba7f163c4a11628f55a4df523b3ef846040516125439190612bb6565b60405180910390a361255684848461294a565b50505050565b600073ffffffffffffffffffffffffffffffffffffffff168273ffffffffffffffffffffffffffffffffffffffff16036125cb576040517f08c379a00000000000000000000000000000000000000000000000000000000081526004016125c290613a34565b60405180910390fd5b6125d782600083612945565b60008060008473ffffffffffffffffffffffffffffffffffffffff1673ffffffffffffffffffffffffffffffffffffffff1681526020019081526020016000205490508181101561265d576040517f08c379a000000000000000000000000000000000000000000000000000000000815260040161265490613ac6565b60405180910390fd5b8181036000808573ffffffffffffffffffffffffffffffffffffffff1673ffffffffffffffffffffffffffffffffffffffff1681526020019081526020016000208190555081600260008282540392505081905550600073ffffffffffffffffffffffffffffffffffffffff168373ffffffffffffffffffffffffffffffffffffffff167fddf252ad1be2c89b69c2b068fc378daa952ba7f163c4a11628f55a4df523b3ef846040516127109190612bb6565b60405180910390a36127248360008461294a565b505050565b600073ffffffffffffffffffffffffffffffffffffffff168273ffffffffffffffffffffffffffffffffffffffff1603612798576040517f08c379a000000000000000000000000000000000000000000000000000000000815260040161278f90613b32565b60405180910390fd5b6127a460008383612945565b80600260008282546127b69190612f94565b92505081905550806000808473ffffffffffffffffffffffffffffffffffffffff1673ffffffffffffffffffffffffffffffffffffffff168152602001908152602001600020600082825401925050819055508173ffffffffffffffffffffffffffffffffffffffff16600073ffffffffffffffffffffffffffffffffffffffff167fddf252ad1be2c89b69c2b068fc378daa952ba7f163c4a11628f55a4df523b3ef836040516128679190612bb6565b60405180910390a361287b6000838361294a565b5050565b6000600560009054906101000a900473ffffffffffffffffffffffffffffffffffffffff16905081600560006101000a81548173ffffffffffffffffffffffffffffffffffffffff021916908373ffffffffffffffffffffffffffffffffffffffff1602179055508173ffffffffffffffffffffffffffffffffffffffff168173ffffffffffffffffffffffffffffffffffffffff167f8be0079c531659141344cd1fd0a4f28419497f9722a3daafe3b4186f6b6457e060405160405180910390a35050565b505050565b505050565b508054600082559060005260206000209081019061296d9190612970565b50565b5b80821115612989576000816000905550600101612971565b5090565b600081519050919050565b600082825260208201905092915050565b60005b838110156129c75780820151818401526020810190506129ac565b60008484015250505050565b6000601f19601f8301169050919050565b60006129ef8261298d565b6129f98185612998565b9350612a098185602086016129a9565b612a12816129d3565b840191505092915050565b60006020820190508181036000830152612a3781846129e4565b905092915050565b600080fd5b600073ffffffffffffffffffffffffffffffffffffffff82169050919050565b6000612a6f82612a44565b9050919050565b612a7f81612a64565b8114612a8a57600080fd5b50565b600081359050612a9c81612a76565b92915050565b6000819050919050565b612ab581612aa2565b8114612ac057600080fd5b50565b600081359050612ad281612aac565b92915050565b60008060408385031215612aef57612aee612a3f565b5b6000612afd85828601612a8d565b9250506020612b0e85828601612ac3565b9150509250929050565b60008115159050919050565b612b2d81612b18565b82525050565b6000602082019050612b486000830184612b24565b92915050565b612b5781612b18565b8114612b6257600080fd5b50565b600081359050612b7481612b4e565b92915050565b600060208284031215612b9057612b8f612a3f565b5b6000612b9e84828501612b65565b91505092915050565b612bb081612aa2565b82525050565b6000602082019050612bcb6000830184612ba7565b92915050565b600080600060608486031215612bea57612be9612a3f565b5b6000612bf886828701612a8d565b9350506020612c0986828701612a8d565b9250506040612c1a86828701612ac3565b9150509250925092565b600060208284031215612c3a57612c39612a3f565b5b6000612c4884828501612ac3565b91505092915050565b600060ff82169050919050565b612c6781612c51565b82525050565b6000602082019050612c826000830184612c5e565b92915050565b612c9181612a64565b82525050565b6000602082019050612cac6000830184612c88565b92915050565b6000612cbd82612a44565b9050919050565b612ccd81612cb2565b82525050565b6000602082019050612ce86000830184612cc4565b92915050565b60008060408385031215612d0557612d04612a3f565b5b6000612d1385828601612ac3565b9250506020612d2485828601612a8d565b9150509250929050565b600060208284031215612d4457612d43612a3f565b5b6000612d5284828501612a8d565b91505092915050565b60008060408385031215612d7257612d71612a3f565b5b6000612d8085828601612a8d565b9250506020612d9185828601612a8d565b9150509250929050565b7f4e487b7100000000000000000000000000000000000000000000000000000000600052602260045260246000fd5b60006002820490506001821680612de257607f821691505b602082108103612df557612df4612d9b565b5b50919050565b7f5269646520696e2070726f67726573732e20547279206c617465720000000000600082015250565b6000612e31601b83612998565b9150612e3c82612dfb565b602082019050919050565b60006020820190508181036000830152612e6081612e24565b9050919050565b7f4e6f20706f736974696f6e20666f756e64000000000000000000000000000000600082015250565b6000612e9d601183612998565b9150612ea882612e67565b602082019050919050565b60006020820190508181036000830152612ecc81612e90565b9050919050565b7f43616e6e6f74207769746864726177206d6f7265207468616e20706f7369746960008201527f6f6e000000000000000000000000000000000000000000000000000000000000602082015250565b6000612f2f602283612998565b9150612f3a82612ed3565b604082019050919050565b60006020820190508181036000830152612f5e81612f22565b9050919050565b7f4e487b7100000000000000000000000000000000000000000000000000000000600052601160045260246000fd5b6000612f9f82612aa2565b9150612faa83612aa2565b9250828201905080821115612fc257612fc1612f65565b5b92915050565b7f4e6f206465706f736974207469636b657420666f756e64000000000000000000600082015250565b6000612ffe601783612998565b915061300982612fc8565b602082019050919050565b6000602082019050818103600083015261302d81612ff1565b9050919050565b600061303f82612aa2565b915061304a83612aa2565b925082820390508181111561306257613061612f65565b5b92915050565b600061307382612aa2565b915061307e83612aa2565b925082820261308c81612aa2565b915082820484148315176130a3576130a2612f65565b5b5092915050565b7f4e487b7100000000000000000000000000000000000000000000000000000000600052601260045260246000fd5b60006130e482612aa2565b91506130ef83612aa2565b9250826130ff576130fe6130aa565b5b828204905092915050565b600060408201905061311f6000830185612c88565b61312c6020830184612ba7565b9392505050565b60008151905061314281612b4e565b92915050565b60006020828403121561315e5761315d612a3f565b5b600061316c84828501613133565b91505092915050565b7f4e487b7100000000000000000000000000000000000000000000000000000000600052603260045260246000fd5b60006131af82612aa2565b91507fffffffffffffffffffffffffffffffffffffffffffffffffffffffffffffffff82036131e1576131e0612f65565b5b600182019050919050565b7f4f6e6c7920676174652063616e2063616c6c20746869732066756e6374696f6e600082015250565b6000613222602083612998565b915061322d826131ec565b602082019050919050565b6000602082019050818103600083015261325181613215565b9050919050565b7f4e6f207269646520696e2070726f677265737300000000000000000000000000600082015250565b600061328e601383612998565b915061329982613258565b602082019050919050565b600060208201905081810360008301526132bd81613281565b9050919050565b6000815190506132d381612aac565b92915050565b6000602082840312156132ef576132ee612a3f565b5b60006132fd848285016132c4565b91505092915050565b7f4e6f206761746520616464726573732073657400000000000000000000000000600082015250565b600061333c601383612998565b915061334782613306565b602082019050919050565b6000602082019050818103600083015261336b8161332f565b9050919050565b7f4e6f206465706f73697473206f7220776974686472617720746f206c61756e6360008201527f6820627573207769746800000000000000000000000000000000000000000000602082015250565b60006133ce602a83612998565b91506133d982613372565b604082019050919050565b600060208201905081810360008301526133fd816133c1565b9050919050565b6000819050919050565b600061342961342461341f84612a44565b613404565b612a44565b9050919050565b600061343b8261340e565b9050919050565b600061344d82613430565b9050919050565b61345d81613442565b82525050565b60006040820190506134786000830185613454565b6134856020830184612ba7565b9392505050565b60006040820190506134a16000830185612ba7565b6134ae6020830184612ba7565b9392505050565b7f45524332303a2064656372656173656420616c6c6f77616e63652062656c6f7760008201527f207a65726f000000000000000000000000000000000000000000000000000000602082015250565b6000613511602583612998565b915061351c826134b5565b604082019050919050565b6000602082019050818103600083015261354081613504565b9050919050565b600060608201905061355c6000830186612c88565b6135696020830185612c88565b6135766040830184612ba7565b949350505050565b7f4f776e61626c653a206e6577206f776e657220697320746865207a65726f206160008201527f6464726573730000000000000000000000000000000000000000000000000000602082015250565b60006135da602683612998565b91506135e58261357e565b604082019050919050565b60006020820190508181036000830152613609816135cd565b9050919050565b7f45524332303a20617070726f76652066726f6d20746865207a65726f2061646460008201527f7265737300000000000000000000000000000000000000000000000000000000602082015250565b600061366c602483612998565b915061367782613610565b604082019050919050565b6000602082019050818103600083015261369b8161365f565b9050919050565b7f45524332303a20617070726f766520746f20746865207a65726f20616464726560008201527f7373000000000000000000000000000000000000000000000000000000000000602082015250565b60006136fe602283612998565b9150613709826136a2565b604082019050919050565b6000602082019050818103600083015261372d816136f1565b9050919050565b7f4f776e61626c653a2063616c6c6572206973206e6f7420746865206f776e6572600082015250565b600061376a602083612998565b915061377582613734565b602082019050919050565b600060208201905081810360008301526137998161375d565b9050919050565b7f45524332303a20696e73756666696369656e7420616c6c6f77616e6365000000600082015250565b60006137d6601d83612998565b91506137e1826137a0565b602082019050919050565b60006020820190508181036000830152613805816137c9565b9050919050565b7f45524332303a207472616e736665722066726f6d20746865207a65726f20616460008201527f6472657373000000000000000000000000000000000000000000000000000000602082015250565b6000613868602583612998565b91506138738261380c565b604082019050919050565b600060208201905081810360008301526138978161385b565b9050919050565b7f45524332303a207472616e7366657220746f20746865207a65726f206164647260008201527f6573730000000000000000000000000000000000000000000000000000000000602082015250565b60006138fa602383612998565b91506139058261389e565b604082019050919050565b60006020820190508181036000830152613929816138ed565b9050919050565b7f45524332303a207472616e7366657220616d6f756e742065786365656473206260008201527f616c616e63650000000000000000000000000000000000000000000000000000602082015250565b600061398c602683612998565b915061399782613930565b604082019050919050565b600060208201905081810360008301526139bb8161397f565b9050919050565b7f45524332303a206275726e2066726f6d20746865207a65726f2061646472657360008201527f7300000000000000000000000000000000000000000000000000000000000000602082015250565b6000613a1e602183612998565b9150613a29826139c2565b604082019050919050565b60006020820190508181036000830152613a4d81613a11565b9050919050565b7f45524332303a206275726e20616d6f756e7420657863656564732062616c616e60008201527f6365000000000000000000000000000000000000000000000000000000000000602082015250565b6000613ab0602283612998565b9150613abb82613a54565b604082019050919050565b60006020820190508181036000830152613adf81613aa3565b9050919050565b7f45524332303a206d696e7420746f20746865207a65726f206164647265737300600082015250565b6000613b1c601f83612998565b9150613b2782613ae6565b602082019050919050565b60006020820190508181036000830152613b4b81613b0f565b905091905056fea264697066735822122083af2c04acfaabfdb3fab6d01b7421204f90e3526cc4c0eccc473413f8830e2464736f6c63430008110033",
  "linkReferences": {},
  "deployedLinkReferences": {}
}